:100000005EC092C077C076C075C074C073C072C045
:1000100071C070C06FC06EC06DC06CC06BC06AC074
:1000200069C068C067C00902220001010080190987
:100030000400000103000000092101010001223435
:100040000007058103080064120110010000000888
:10005000C016E8030001010200010C034D006F000F
:10006000750073006500200363006F006400650085
:1000700061006E0064006C006900660065002E007F
:1000800063006F006D000403090405010902A1016A
:100090000901A1000509190129031500250195038E
:1000A000750181029501750581030501093009314A
:1000B00009381581257F750895038106C0C0112474
:1000C0001FBECFE5D4E0DEBFCDBF10E0A0E6B0E0BC
:1000D000ECE9F7E002C005900D92A236B107D9F71E
:1000E00020E0A2E6B0E001C01D92AE39B207E1F710
:1000F00092D252C385CFA82FB92F80E090E041E083
:1001000050EA609530E009C02D9182279795879538
:1001100010F084279527305EC8F36F5FA8F3089529
:10012000EADF8D939D930895CF93CFB7CF93DF935D
:10013000C395839BE9F7839B0BC0839B09C0839B7B
:1001400007C0839B05C0839B03C0839B01C08BC0FA
:100150006F93C0918100DD27C857DF4F2F9365E56E
:10016000839B03C02F916F91E6CF0F931F934F9303
:1001700020E040E15F9300B30C7003FB27F93F934D
:1001800050E03BE039C01C7040642F77012F5F5F67
:100190001EC0406810B31C702F7752501FC04064BF
:1001A00000B32F770C70D1F15F5F00C023C04062B5
:1001B00010B32F771C7091F15F5F00C025C00C70E9
:1001C0001027515012F45D5F0000115027952C3F0D
:1001D00010B3C8F61C700127015027952C3FC8F6B4
:1001E0004227499300B30C7010274F731150279585
:1001F0002C3FA8F64695469510B31C7079F0012760
:10020000015027952C3F98F66B5A60F3315000B39C
:10021000B0F600C010E41ABF002719C03B5031955A
:10022000C31BD04010E41ABF0881033C09F10B3412
:10023000F9F020917F001981110F1213EDCF4A813F
:10024000441F093651F10D3211F0013E29F7009398
:1002500086003F915F914F911F910F912F916F9168
:10026000CAB7C6FD65CFDF91CF91CFBFCF911895AB
:1002700020918600222369F310918400112391F5C7
:10028000343092F1309384002093800010918100EB
:100290003BE0311B3093810027C000918400013086
:1002A0000CF50AE54F7049F43091610034FD1DC032
:1002B00000936100C8E6D0E01CC03091730034FDAB
:1002C00014C000937300C4E7D0E013C0052710E00A
:1002D00000C0000002BB1AC0052710E0221F1DC08D
:1002E00010E021C04AE502C032ED432FC4E1D0E066
:1002F00032E011B31C60939A02B311BB5CE020E8BA
:1003000065E320FF052702BB279517951C3FF0F6F4
:100310006695B8F7B1F720FF052702BB279517951B
:100320001C3FD0F62795179517FF052700001C3FA7
:1003300002BBB0F629913A9519F7037F1091850019
:10034000110FC651D04002BB11F010937F0010E492
:100350001ABF086011B3137F402F437F54E05A95B2
:10036000F1F702BB11BB42BB74CFCF93C62F2091D4
:10037000730024FF07C02091740038E823272093DE
:10038000740003C02AE520937300DC01E5E7F0E088
:100390008C2F8E0F9D9191938E13FCCF6C2F85E740
:1003A00090E0BEDECC5FC0937300CF910895CF93F1
:1003B000DF9380918400835087FDA8C090918100D5
:1003C000209180002D3209F09FC0883009F09CC038
:1003D000CCE0D0E0C91BD109C857DF4F83EC809334
:1003E00068008AE5809361001092620088818076BF
:1003F00019F0CE01EFD07FC09A81109271008981EF
:10040000811106C01092720021E730E082E06FC0D7
:10041000853019F49093850067C0863009F04EC08E
:100420008B81813041F488E490E090938300809345
:10043000820082E13FC0823041F486E290E09093F6
:1004400083008093820082E235C08330F1F4911101
:1004500008C086E890E0909383008093820084E057
:1004600029C0913041F486E690E090938300809318
:10047000820080E21FC09230E1F48AE590E0909320
:100480008300809382008CE015C0813241F488E3C0
:1004900090E0909383008093820089E00BC08232C9
:1004A00041F48AE890E0909383008093820084E393
:1004B00001C080E090E4909362001DC0883069F034
:1004C000893019F4909387000FC08A3049F08B303F
:1004D00059F48BE48093740007C027E830E002C031
:1004E00021E730E081E003C021E730E080E0309395
:1004F0008300209382009F81911104C09E819817F0
:1005000008F4892F8093600010928400809161002C
:1005100084FF46C0809160008F3F09F441C0C82F1E
:10052000893008F0C8E08C1B8093600080916800DF
:1005300098E8892780936800CC2331F120918200CC
:10054000309183008091620086FF0BC0A9E6B0E085
:10055000F9018C2F8A0F94919D9331968A13FBCFCA
:1005600009C0D901E9E6F0E08C2F8E0F9D9191939F
:100570008E13FCCF8FEF8C0F90E00196820F931FAC
:1005800090938300809382006C2F89E690E0C8DD11
:10059000CC5FCC3019F08FEF80936000C093610086
:1005A00084E190B39C7031F48150D9F710928500AA
:1005B00010927F00DF91CF91089585B7826085BF4B
:1005C0008BB780648BBF8BE4809374008AE5809343
:1005D00073000895FC01808180768032D1F481819E
:1005E000813041F484E690E0909383008093820010
:1005F00084E00895823041F483E690E09093830094
:100600008093820081E008958A3019F48381809379
:10061000630080E0089514BA8FEF85BB2EE088E177
:1006200090E00FB6F894A89581BD0FBE21BDC5DF3F
:100630008B9A8AEFA895EFE3FFE13197F1F700C0BD
:1006400000008150B9F78B987894812C912C54013B
:10065000C12CD12C7601C1E0A895A9DE999917C0CB
:10066000FFEF8F1A9F0AAF0ABF0A81E488168DE058
:10067000980683E0A806B10418F5E0E48E16EDE0D4
:100680009E06E3E0AE06B104E9F095E02CC09D992A
:100690001BC0FFEF8F1A9F0AAF0ABF0A81E48816BA
:1006A0008DE0980683E0A806B10498F4E0E48E1685
:1006B000EDE09E06E3E0AE06B104A1F09BEF13C0AF
:1006C0009FE008C09FE00FC090E0812C912C540166
:1006D0000AC091EF30E4832E3DE0932E33E0A32E49
:1006E000B12C01C091EF9B9917C0FFEFCF1ADF0A21
:1006F000EF0AFF0A81E4C8168DE0D80683E0E80619
:10070000F10418F5E0E4CE16EDE0DE06E3E0EE06D7
:10071000F104E9F08BEF2CC09A991BC0FFEFCF1AC0
:10072000DF0AEF0AFF0A81E4C8168DE0D80683E0ED
:10073000E806F10498F4E0E4CE16EDE0DE06E3E02E
:10074000EE06F104A1F085E013C081EF08C081EF4F
:100750000FC080E0C12CD12C76010AC08FE020E4CC
:10076000C22E2DE0D22E23E0E22EF12C01C08FE02C
:100770009C9903C0C093640002C0109264009093DF
:100780006600809365008091730084FF65CF64E00C
:0C07900084E690E0EADD60CFF894FFCF33
:02079C00FF5A02
:00000001FF
